{
  "_format": "hh-sol-artifact-1",
  "contractName": "EscrowManager",
  "sourceName": "contracts/EscrowManager.sol",
  "abi": [
    {
      "inputs": [],
      "stateMutability": "nonpayable",
      "type": "constructor"
    },
    {
      "anonymous": false,
      "inputs": [
        {
          "indexed": false,
          "internalType": "uint256",
          "name": "escrowId",
          "type": "uint256"
        }
      ],
      "name": "DisputeResolved",
      "type": "event"
    },
    {
      "anonymous": false,
      "inputs": [
        {
          "indexed": false,
          "internalType": "uint256",
          "name": "escrowId",
          "type": "uint256"
        }
      ],
      "name": "EscrowCreated",
      "type": "event"
    },
    {
      "anonymous": false,
      "inputs": [
        {
          "indexed": false,
          "internalType": "address",
          "name": "client",
          "type": "address"
        },
        {
          "indexed": false,
          "internalType": "address",
          "name": "worker",
          "type": "address"
        },
        {
          "indexed": false,
          "internalType": "uint256",
          "name": "amount",
          "type": "uint256"
        },
        {
          "indexed": false,
          "internalType": "bool",
          "name": "clientDecisionGiven",
          "type": "bool"
        },
        {
          "indexed": false,
          "internalType": "bool",
          "name": "isSettled",
          "type": "bool"
        },
        {
          "indexed": false,
          "internalType": "bool",
          "name": "isDisputed",
          "type": "bool"
        },
        {
          "indexed": false,
          "internalType": "string",
          "name": "agreement",
          "type": "string"
        },
        {
          "indexed": false,
          "internalType": "string",
          "name": "submission",
          "type": "string"
        },
        {
          "indexed": false,
          "internalType": "address[]",
          "name": "votesYes",
          "type": "address[]"
        },
        {
          "indexed": false,
          "internalType": "address[]",
          "name": "votesNo",
          "type": "address[]"
        }
      ],
      "name": "EscrowDetails",
      "type": "event"
    },
    {
      "anonymous": false,
      "inputs": [
        {
          "indexed": false,
          "internalType": "uint256",
          "name": "escrowId",
          "type": "uint256"
        }
      ],
      "name": "EscrowSettled",
      "type": "event"
    },
    {
      "anonymous": false,
      "inputs": [
        {
          "indexed": false,
          "internalType": "address",
          "name": "user",
          "type": "address"
        },
        {
          "indexed": false,
          "internalType": "uint256",
          "name": "userType",
          "type": "uint256"
        }
      ],
      "name": "UserRegistered",
      "type": "event"
    },
    {
      "anonymous": false,
      "inputs": [
        {
          "indexed": false,
          "internalType": "uint256",
          "name": "escrowId",
          "type": "uint256"
        }
      ],
      "name": "WorkApproved",
      "type": "event"
    },
    {
      "anonymous": false,
      "inputs": [
        {
          "indexed": false,
          "internalType": "uint256",
          "name": "escrowId",
          "type": "uint256"
        }
      ],
      "name": "WorkRejected",
      "type": "event"
    },
    {
      "anonymous": false,
      "inputs": [
        {
          "indexed": false,
          "internalType": "uint256",
          "name": "escrowId",
          "type": "uint256"
        }
      ],
      "name": "WorkSubmitted",
      "type": "event"
    },
    {
      "inputs": [
        {
          "internalType": "bool",
          "name": "_approval",
          "type": "bool"
        },
        {
          "internalType": "uint256",
          "name": "_escrowId",
          "type": "uint256"
        }
      ],
      "name": "approveWork",
      "outputs": [],
      "stateMutability": "nonpayable",
      "type": "function"
    },
    {
      "inputs": [
        {
          "internalType": "address",
          "name": "",
          "type": "address"
        },
        {
          "internalType": "uint256",
          "name": "",
          "type": "uint256"
        }
      ],
      "name": "clientEscrowIdsMapping",
      "outputs": [
        {
          "internalType": "uint256",
          "name": "",
          "type": "uint256"
        }
      ],
      "stateMutability": "view",
      "type": "function"
    },
    {
      "inputs": [
        {
          "internalType": "address",
          "name": "_worker",
          "type": "address"
        },
        {
          "internalType": "uint256",
          "name": "_amount",
          "type": "uint256"
        },
        {
          "internalType": "string",
          "name": "_agreement",
          "type": "string"
        }
      ],
      "name": "createEscrow",
      "outputs": [],
      "stateMutability": "payable",
      "type": "function"
    },
    {
      "inputs": [
        {
          "internalType": "uint256",
          "name": "_escrowId",
          "type": "uint256"
        }
      ],
      "name": "disburseFunds",
      "outputs": [],
      "stateMutability": "nonpayable",
      "type": "function"
    },
    {
      "inputs": [],
      "name": "escrowAdmin",
      "outputs": [
        {
          "internalType": "address",
          "name": "",
          "type": "address"
        }
      ],
      "stateMutability": "view",
      "type": "function"
    },
    {
      "inputs": [
        {
          "internalType": "uint256",
          "name": "",
          "type": "uint256"
        }
      ],
      "name": "escrowIds",
      "outputs": [
        {
          "internalType": "uint256",
          "name": "",
          "type": "uint256"
        }
      ],
      "stateMutability": "view",
      "type": "function"
    },
    {
      "inputs": [
        {
          "internalType": "uint256",
          "name": "",
          "type": "uint256"
        }
      ],
      "name": "escrows",
      "outputs": [
        {
          "internalType": "address payable",
          "name": "client",
          "type": "address"
        },
        {
          "internalType": "address payable",
          "name": "worker",
          "type": "address"
        },
        {
          "internalType": "uint256",
          "name": "amount",
          "type": "uint256"
        },
        {
          "internalType": "bool",
          "name": "clientDecisionGiven",
          "type": "bool"
        },
        {
          "internalType": "bool",
          "name": "isSettled",
          "type": "bool"
        },
        {
          "internalType": "bool",
          "name": "isDisputed",
          "type": "bool"
        },
        {
          "internalType": "string",
          "name": "agreement",
          "type": "string"
        },
        {
          "internalType": "string",
          "name": "submission",
          "type": "string"
        },
        {
          "components": [
            {
              "internalType": "address[]",
              "name": "yes",
              "type": "address[]"
            },
            {
              "internalType": "address[]",
              "name": "no",
              "type": "address[]"
            }
          ],
          "internalType": "struct EscrowManager.Votes",
          "name": "votes",
          "type": "tuple"
        }
      ],
      "stateMutability": "view",
      "type": "function"
    },
    {
      "inputs": [],
      "name": "getClientEscrowIds",
      "outputs": [
        {
          "internalType": "uint256[]",
          "name": "",
          "type": "uint256[]"
        }
      ],
      "stateMutability": "view",
      "type": "function"
    },
    {
      "inputs": [
        {
          "internalType": "uint256",
          "name": "_escrowId",
          "type": "uint256"
        }
      ],
      "name": "getEscrowDetails",
      "outputs": [],
      "stateMutability": "nonpayable",
      "type": "function"
    },
    {
      "inputs": [],
      "name": "getUserType",
      "outputs": [
        {
          "internalType": "uint256",
          "name": "",
          "type": "uint256"
        }
      ],
      "stateMutability": "view",
      "type": "function"
    },
    {
      "inputs": [],
      "name": "getWorkerEscrowIds",
      "outputs": [
        {
          "internalType": "uint256[]",
          "name": "",
          "type": "uint256[]"
        }
      ],
      "stateMutability": "view",
      "type": "function"
    },
    {
      "inputs": [
        {
          "internalType": "uint256",
          "name": "_userType",
          "type": "uint256"
        }
      ],
      "name": "registerUser",
      "outputs": [],
      "stateMutability": "nonpayable",
      "type": "function"
    },
    {
      "inputs": [
        {
          "internalType": "uint256",
          "name": "_escrowId",
          "type": "uint256"
        },
        {
          "internalType": "string",
          "name": "_submission",
          "type": "string"
        }
      ],
      "name": "submitWork",
      "outputs": [],
      "stateMutability": "nonpayable",
      "type": "function"
    },
    {
      "inputs": [
        {
          "internalType": "address",
          "name": "",
          "type": "address"
        }
      ],
      "name": "userType",
      "outputs": [
        {
          "internalType": "uint256",
          "name": "",
          "type": "uint256"
        }
      ],
      "stateMutability": "view",
      "type": "function"
    },
    {
      "inputs": [
        {
          "internalType": "uint256",
          "name": "_escrowId",
          "type": "uint256"
        },
        {
          "internalType": "bool",
          "name": "_validWork",
          "type": "bool"
        }
      ],
      "name": "voteForDispute",
      "outputs": [],
      "stateMutability": "nonpayable",
      "type": "function"
    },
    {
      "inputs": [
        {
          "internalType": "address",
          "name": "",
          "type": "address"
        }
      ],
      "name": "voters",
      "outputs": [
        {
          "internalType": "uint256",
          "name": "",
          "type": "uint256"
        }
      ],
      "stateMutability": "view",
      "type": "function"
    },
    {
      "inputs": [
        {
          "internalType": "address",
          "name": "",
          "type": "address"
        },
        {
          "internalType": "uint256",
          "name": "",
          "type": "uint256"
        }
      ],
      "name": "workerEscrowIdsMapping",
      "outputs": [
        {
          "internalType": "uint256",
          "name": "",
          "type": "uint256"
        }
      ],
      "stateMutability": "view",
      "type": "function"
    }
  ],
  "bytecode": "0x6080604052600160055534801561001557600080fd5b50336000806101000a81548173ffffffffffffffffffffffffffffffffffffffff021916908373ffffffffffffffffffffffffffffffffffffffff1602179055506001600760003373ffffffffffffffffffffffffffffffffffffffff1673ffffffffffffffffffffffffffffffffffffffff16815260200190815260200160002081905550612f93806100aa6000396000f3fe6080604052600436106100fe5760003560e01c8063a3ec138d11610095578063cc212a4811610064578063cc212a4814610375578063da39fd881461039e578063da8accf9146103c7578063e1e00c10146103f0578063e334e8dd1461041b576100fe565b8063a3ec138d146102a9578063b83458b0146102e6578063b996ec2a14610323578063ba92982f1461034c576100fe565b806341990077116100d157806341990077146101eb578063786f12951461021657806381d79b4b146102535780638761fb7c1461027e576100fe565b8063012f52ee1461010357806317db2706146101485780631bbfae0e1461018557806332e184ee146101ae575b600080fd5b34801561010f57600080fd5b5061012a60048036038101906101259190612135565b610437565b60405161013f99989796959493929190612906565b60405180910390f35b34801561015457600080fd5b5061016f600480360381019061016a9190612056565b610722565b60405161017c9190612bd3565b60405180910390f35b34801561019157600080fd5b506101ac60048036038101906101a79190612135565b610753565b005b3480156101ba57600080fd5b506101d560048036038101906101d09190612056565b6108a9565b6040516101e29190612bd3565b60405180910390f35b3480156101f757600080fd5b506102006108da565b60405161020d9190612bd3565b60405180910390f35b34801561022257600080fd5b5061023d60048036038101906102389190612135565b610921565b60405161024a9190612bd3565b60405180910390f35b34801561025f57600080fd5b50610268610945565b60405161027591906129d1565b60405180910390f35b34801561028a57600080fd5b50610293610a5f565b6040516102a09190612833565b60405180910390f35b3480156102b557600080fd5b506102d060048036038101906102cb919061202d565b610a83565b6040516102dd9190612bd3565b60405180910390f35b3480156102f257600080fd5b5061030d6004803603810190610308919061202d565b610a9b565b60405161031a9190612bd3565b60405180910390f35b34801561032f57600080fd5b5061034a60048036038101906103459190612135565b610ab3565b005b34801561035857600080fd5b50610373600480360381019061036e91906120f9565b610f56565b005b34801561038157600080fd5b5061039c60048036038101906103979190612135565b6110c4565b005b3480156103aa57600080fd5b506103c560048036038101906103c0919061215e565b6113c8565b005b3480156103d357600080fd5b506103ee60048036038101906103e9919061219a565b611754565b005b3480156103fc57600080fd5b506104056118a6565b60405161041291906129d1565b60405180910390f35b61043560048036038101906104309190612092565b6119c0565b005b60016020528060005260406000206000915090508060000160009054906101000a900473ffffffffffffffffffffffffffffffffffffffff16908060010160009054906101000a900473ffffffffffffffffffffffffffffffffffffffff16908060020154908060030160009054906101000a900460ff16908060030160019054906101000a900460ff16908060030160029054906101000a900460ff16908060040180546104e590612dff565b80601f016020809104026020016040519081016040528092919081815260200182805461051190612dff565b801561055e5780601f106105335761010080835404028352916020019161055e565b820191906000526020600020905b81548152906001019060200180831161054157829003601f168201915b50505050509080600501805461057390612dff565b80601f016020809104026020016040519081016040528092919081815260200182805461059f90612dff565b80156105ec5780601f106105c1576101008083540402835291602001916105ec565b820191906000526020600020905b8154815290600101906020018083116105cf57829003601f168201915b505050505090806006016040518060400160405290816000820180548060200260200160405190810160405280929190818152602001828054801561068657602002820191906000526020600020905b8160009054906101000a900473ffffffffffffffffffffffffffffffffffffffff1673ffffffffffffffffffffffffffffffffffffffff168152602001906001019080831161063c575b505050505081526020016001820180548060200260200160405190810160405280929190818152602001828054801561071457602002820191906000526020600020905b8160009054906101000a900473ffffffffffffffffffffffffffffffffffffffff1673ffffffffffffffffffffffffffffffffffffffff16815260200190600101908083116106ca575b505050505081525050905089565b6004602052816000526040600020818154811061073e57600080fd5b90600052602060002001600091509150505481565b6000600760003373ffffffffffffffffffffffffffffffffffffffff1673ffffffffffffffffffffffffffffffffffffffff16815260200190815260200160002054146107d5576040517f08c379a00000000000000000000000000000000000000000000000000000000081526004016107cc90612a93565b60405180910390fd5b600060028214806107e65750600482145b905080610828576040517f08c379a000000000000000000000000000000000000000000000000000000000815260040161081f90612bb3565b60405180910390fd5b81600760003373ffffffffffffffffffffffffffffffffffffffff1673ffffffffffffffffffffffffffffffffffffffff168152602001908152602001600020819055507fe29d35093005f4d575e1003753426b57a7f64378ba73332eef9c6ccc2b8decd6338360405161089d9291906129a8565b60405180910390a15050565b600360205281600052604060002081815481106108c557600080fd5b90600052602060002001600091509150505481565b6000600760003373ffffffffffffffffffffffffffffffffffffffff1673ffffffffffffffffffffffffffffffffffffffff16815260200190815260200160002054905090565b6006818154811061093157600080fd5b906000526020600020016000915090505481565b60606000600360003373ffffffffffffffffffffffffffffffffffffffff1673ffffffffffffffffffffffffffffffffffffffff16815260200190815260200160002080549050116109cc576040517f08c379a00000000000000000000000000000000000000000000000000000000081526004016109c390612b13565b60405180910390fd5b600360003373ffffffffffffffffffffffffffffffffffffffff1673ffffffffffffffffffffffffffffffffffffffff168152602001908152602001600020805480602002602001604051908101604052809291908181526020018280548015610a5557602002820191906000526020600020905b815481526020019060010190808311610a41575b5050505050905090565b60008054906101000a900473ffffffffffffffffffffffffffffffffffffffff1681565b60026020528060005260406000206000915090505481565b60076020528060005260406000206000915090505481565b600073ffffffffffffffffffffffffffffffffffffffff166001600083815260200190815260200160002060000160009054906101000a900473ffffffffffffffffffffffffffffffffffffffff1673ffffffffffffffffffffffffffffffffffffffff161415610b59576040517f08c379a0000000000000000000000000000000000000000000000000000000008152600401610b5090612a13565b60405180910390fd5b600060016000838152602001908152602001600020604051806101200160405290816000820160009054906101000a900473ffffffffffffffffffffffffffffffffffffffff1673ffffffffffffffffffffffffffffffffffffffff1673ffffffffffffffffffffffffffffffffffffffff1681526020016001820160009054906101000a900473ffffffffffffffffffffffffffffffffffffffff1673ffffffffffffffffffffffffffffffffffffffff1673ffffffffffffffffffffffffffffffffffffffff168152602001600282015481526020016003820160009054906101000a900460ff161515151581526020016003820160019054906101000a900460ff161515151581526020016003820160029054906101000a900460ff16151515158152602001600482018054610c9190612dff565b80601f0160208091040260200160405190810160405280929190818152602001828054610cbd90612dff565b8015610d0a5780601f10610cdf57610100808354040283529160200191610d0a565b820191906000526020600020905b815481529060010190602001808311610ced57829003601f168201915b50505050508152602001600582018054610d2390612dff565b80601f0160208091040260200160405190810160405280929190818152602001828054610d4f90612dff565b8015610d9c5780601f10610d7157610100808354040283529160200191610d9c565b820191906000526020600020905b815481529060010190602001808311610d7f57829003601f168201915b505050505081526020016006820160405180604001604052908160008201805480602002602001604051908101604052809291908181526020018280548015610e3a57602002820191906000526020600020905b8160009054906101000a900473ffffffffffffffffffffffffffffffffffffffff1673ffffffffffffffffffffffffffffffffffffffff1681526020019060010190808311610df0575b5050505050815260200160018201805480602002602001604051908101604052809291908181526020018280548015610ec857602002820191906000526020600020905b8160009054906101000a900473ffffffffffffffffffffffffffffffffffffffff1673ffffffffffffffffffffffffffffffffffffffff1681526020019060010190808311610e7e575b5050505050815250508152505090507f5d86d94b68cfd39dc2854cca58ba71f5d805bf12963b8a84a23ac1471e9f7955816000015182602001518360400151846060015185608001518660a001518760c001518860e00151896101000151600001518a610100015160200151604051610f4a9a9998979695949392919061284e565b60405180910390a15050565b6000600160008381526020019081526020016000206005018054610f7990612dff565b905011610fbb576040517f08c379a0000000000000000000000000000000000000000000000000000000008152600401610fb290612a33565b60405180910390fd5b600180600083815260200190815260200160002060030160006101000a81548160ff021916908315150217905550811561105a5760006001600083815260200190815260200160002060030160026101000a81548160ff0219169083151502179055507fe021b70c90c04cb1a4fae9fbcf358044aab6b86f01086a2af93b8e5c33abc2b68160405161104d9190612bd3565b60405180910390a16110c0565b600180600083815260200190815260200160002060030160026101000a81548160ff0219169083151502179055507f96d5412ab942f3049daf937b483dc1312af9b021b1b0a2ab2219a4e192484b25816040516110b79190612bd3565b60405180910390a15b5050565b3360008054906101000a900473ffffffffffffffffffffffffffffffffffffffff1673ffffffffffffffffffffffffffffffffffffffff168173ffffffffffffffffffffffffffffffffffffffff1614611153576040517f08c379a000000000000000000000000000000000000000000000000000000000815260040161114a90612ab3565b60405180910390fd5b816001600082815260200190815260200160002060030160029054906101000a900460ff16156111b8576040517f08c379a00000000000000000000000000000000000000000000000000000000081526004016111af90612af3565b60405180910390fd5b826001600082815260200190815260200160002060030160019054906101000a900460ff161561121d576040517f08c379a000000000000000000000000000000000000000000000000000000000815260040161121490612b33565b60405180910390fd5b600060016000868152602001908152602001600020905060008160060160010180549050826006016000018054905010159050600081611281578260000160009054906101000a900473ffffffffffffffffffffffffffffffffffffffff166112a7565b8260010160009054906101000a900473ffffffffffffffffffffffffffffffffffffffff165b905060008173ffffffffffffffffffffffffffffffffffffffff1684600201546040516112d39061281e565b60006040518083038185875af1925050503d8060008114611310576040519150601f19603f3d011682016040523d82523d6000602084013e611315565b606091505b5050905080611359576040517f08c379a000000000000000000000000000000000000000000000000000000000815260040161135090612b93565b60405180910390fd5b60018060008a815260200190815260200160002060030160016101000a81548160ff0219169083151502179055507f3fb211d55ece51bd2ce6d1abaf29866ac8b6effbbc771f0eab5e7a9912763e58886040516113b69190612bd3565b60405180910390a15050505050505050565b81600073ffffffffffffffffffffffffffffffffffffffff166001600083815260200190815260200160002060000160009054906101000a900473ffffffffffffffffffffffffffffffffffffffff1673ffffffffffffffffffffffffffffffffffffffff16141561146f576040517f08c379a000000000000000000000000000000000000000000000000000000000815260040161146690612a13565b60405180910390fd5b60006001600085815260200190815260200160002090508060030160029054906101000a900460ff166114d7576040517f08c379a00000000000000000000000000000000000000000000000000000000081526004016114ce90612a73565b60405180910390fd5b60008054906101000a900473ffffffffffffffffffffffffffffffffffffffff1673ffffffffffffffffffffffffffffffffffffffff163373ffffffffffffffffffffffffffffffffffffffff161415801561158357508060000160009054906101000a900473ffffffffffffffffffffffffffffffffffffffff1673ffffffffffffffffffffffffffffffffffffffff163373ffffffffffffffffffffffffffffffffffffffff1614155b80156115df57508060010160009054906101000a900473ffffffffffffffffffffffffffffffffffffffff1673ffffffffffffffffffffffffffffffffffffffff163373ffffffffffffffffffffffffffffffffffffffff1614155b61161e576040517f08c379a000000000000000000000000000000000000000000000000000000000815260040161161590612b73565b60405180910390fd5b82156116915780600601600001339080600181540180825580915050600190039060005260206000200160009091909190916101000a81548173ffffffffffffffffffffffffffffffffffffffff021916908373ffffffffffffffffffffffffffffffffffffffff1602179055506116fa565b80600601600101339080600181540180825580915050600190039060005260206000200160009091909190916101000a81548173ffffffffffffffffffffffffffffffffffffffff021916908373ffffffffffffffffffffffffffffffffffffffff1602179055505b60008160030160026101000a81548160ff0219169083151502179055507f57cce005d496355471bb5269f1dea3d6c81b6ac14c1d74ba28aefb022357013b846040516117469190612bd3565b60405180910390a150505050565b81600073ffffffffffffffffffffffffffffffffffffffff166001600083815260200190815260200160002060000160009054906101000a900473ffffffffffffffffffffffffffffffffffffffff1673ffffffffffffffffffffffffffffffffffffffff1614156117fb576040517f08c379a00000000000000000000000000000000000000000000000000000000081526004016117f290612a13565b60405180910390fd5b600082511161183f576040517f08c379a000000000000000000000000000000000000000000000000000000000815260040161183690612ad3565b60405180910390fd5b81600160008581526020019081526020016000206005019080519060200190611869929190611e59565b507f37da35a9cc37616d182b3f359f2fff61f738f090deb49c6a76a9c84c2462ba0e836040516118999190612bd3565b60405180910390a1505050565b60606000600460003373ffffffffffffffffffffffffffffffffffffffff1673ffffffffffffffffffffffffffffffffffffffff168152602001908152602001600020805490501161192d576040517f08c379a0000000000000000000000000000000000000000000000000000000008152600401611924906129f3565b60405180910390fd5b600460003373ffffffffffffffffffffffffffffffffffffffff1673ffffffffffffffffffffffffffffffffffffffff1681526020019081526020016000208054806020026020016040519081016040528092919081815260200182805480156119b657602002820191906000526020600020905b8154815260200190600101908083116119a2575b5050505050905090565b60003411611a03576040517f08c379a00000000000000000000000000000000000000000000000000000000081526004016119fa90612a53565b60405180910390fd5b813414611a45576040517f08c379a0000000000000000000000000000000000000000000000000000000008152600401611a3c90612b53565b60405180910390fd5b6060806040518061012001604052803373ffffffffffffffffffffffffffffffffffffffff1681526020018673ffffffffffffffffffffffffffffffffffffffff16815260200185815260200160001515815260200160001515815260200160001515815260200184815260200160405180602001604052806000815250815260200160405180604001604052808581526020018481525081525060016000600554815260200190815260200160002060008201518160000160006101000a81548173ffffffffffffffffffffffffffffffffffffffff021916908373ffffffffffffffffffffffffffffffffffffffff16021790555060208201518160010160006101000a81548173ffffffffffffffffffffffffffffffffffffffff021916908373ffffffffffffffffffffffffffffffffffffffff1602179055506040820151816002015560608201518160030160006101000a81548160ff02191690831515021790555060808201518160030160016101000a81548160ff02191690831515021790555060a08201518160030160026101000a81548160ff02191690831515021790555060c0820151816004019080519060200190611c09929190611e59565b5060e0820151816005019080519060200190611c26929190611e59565b50610100820151816006016000820151816000019080519060200190611c4d929190611edf565b506020820151816001019080519060200190611c6a929190611edf565b505050905050600660055490806001815401808255809150506001900390600052602060002001600090919091909150556002600760003373ffffffffffffffffffffffffffffffffffffffff1673ffffffffffffffffffffffffffffffffffffffff168152602001908152602001600020819055506003600760008773ffffffffffffffffffffffffffffffffffffffff1673ffffffffffffffffffffffffffffffffffffffff16815260200190815260200160002081905550600360003373ffffffffffffffffffffffffffffffffffffffff1673ffffffffffffffffffffffffffffffffffffffff1681526020019081526020016000206005549080600181540180825580915050600190039060005260206000200160009091909190915055600460008673ffffffffffffffffffffffffffffffffffffffff1673ffffffffffffffffffffffffffffffffffffffff168152602001908152602001600020600554908060018154018082558091505060019003906000526020600020016000909190919091505560056000815480929190611e0890612e31565b91905055507fca802b28938736a358ed2e446f2c9707d29773a4c3bcc5d12dc8b949569f96f46001600554611e3d9190612cf9565b604051611e4a9190612bd3565b60405180910390a15050505050565b828054611e6590612dff565b90600052602060002090601f016020900481019282611e875760008555611ece565b82601f10611ea057805160ff1916838001178555611ece565b82800160010185558215611ece579182015b82811115611ecd578251825591602001919060010190611eb2565b5b509050611edb9190611f69565b5090565b828054828255906000526020600020908101928215611f58579160200282015b82811115611f575782518260006101000a81548173ffffffffffffffffffffffffffffffffffffffff021916908373ffffffffffffffffffffffffffffffffffffffff16021790555091602001919060010190611eff565b5b509050611f659190611f69565b5090565b5b80821115611f82576000816000905550600101611f6a565b5090565b6000611f99611f9484612c1f565b612bee565b905082815260208101848484011115611fb157600080fd5b611fbc848285612dbd565b509392505050565b600081359050611fd381612f18565b92915050565b600081359050611fe881612f2f565b92915050565b600082601f830112611fff57600080fd5b813561200f848260208601611f86565b91505092915050565b60008135905061202781612f46565b92915050565b60006020828403121561203f57600080fd5b600061204d84828501611fc4565b91505092915050565b6000806040838503121561206957600080fd5b600061207785828601611fc4565b925050602061208885828601612018565b9150509250929050565b6000806000606084860312156120a757600080fd5b60006120b586828701611fc4565b93505060206120c686828701612018565b925050604084013567ffffffffffffffff8111156120e357600080fd5b6120ef86828701611fee565b9150509250925092565b6000806040838503121561210c57600080fd5b600061211a85828601611fd9565b925050602061212b85828601612018565b9150509250929050565b60006020828403121561214757600080fd5b600061215584828501612018565b91505092915050565b6000806040838503121561217157600080fd5b600061217f85828601612018565b925050602061219085828601611fd9565b9150509250929050565b600080604083850312156121ad57600080fd5b60006121bb85828601612018565b925050602083013567ffffffffffffffff8111156121d857600080fd5b6121e485828601611fee565b9150509250929050565b60006121fa838361223c565b60208301905092915050565b60006122128383612800565b60208301905092915050565b61222781612d87565b82525050565b61223681612d3f565b82525050565b61224581612d2d565b82525050565b61225481612d2d565b82525050565b600061226582612c6f565b61226f8185612caa565b935061227a83612c4f565b8060005b838110156122ab57815161229288826121ee565b975061229d83612c90565b92505060018101905061227e565b5085935050505092915050565b60006122c382612c6f565b6122cd8185612cbb565b93506122d883612c4f565b8060005b838110156123095781516122f088826121ee565b97506122fb83612c90565b9250506001810190506122dc565b5085935050505092915050565b600061232182612c7a565b61232b8185612ccc565b935061233683612c5f565b8060005b8381101561236757815161234e8882612206565b975061235983612c9d565b92505060018101905061233a565b5085935050505092915050565b61237d81612d51565b82525050565b600061238e82612c85565b6123988185612ce8565b93506123a8818560208601612dcc565b6123b181612f07565b840191505092915050565b60006123c9601583612ce8565b91507f576f726b657220646f6573206e6f7420657869737400000000000000000000006000830152602082019050919050565b6000612409601683612ce8565b91507f457363726f7720646f6573206e6f7420657869737421000000000000000000006000830152602082019050919050565b6000612449601d83612ce8565b91507f43616e6e6f74206a7564676520756e7375626d697474656420776f726b0000006000830152602082019050919050565b6000612489601d83612ce8565b91507f457363726f7720616d6f756e742073686f756c64206e6f7420626520300000006000830152602082019050919050565b60006124c9601883612ce8565b91507f4469737075746520616c7265616479207265736f6c76656400000000000000006000830152602082019050919050565b6000612509601483612ce8565b91507f5573657220616c726561647920657869737473210000000000000000000000006000830152602082019050919050565b6000612549600983612ce8565b91507f4e6f742041646d696e00000000000000000000000000000000000000000000006000830152602082019050919050565b6000612589601083612ce8565b91507f456d707479207375626d697373696f6e000000000000000000000000000000006000830152602082019050919050565b60006125c9601c83612ce8565b91507f457363726f772064697370757465206e6f74207265736f6c76656421000000006000830152602082019050919050565b6000612609601583612ce8565b91507f436c69656e7420646f6573206e6f7420657869737400000000000000000000006000830152602082019050919050565b6000612649600083612cdd565b9150600082019050919050565b6000612663601683612ce8565b91507f457363726f7720616c726561647920736574746c6564000000000000000000006000830152602082019050919050565b60006126a3600f83612ce8565b91507f416d6f756e74206d69736d6174636800000000000000000000000000000000006000830152602082019050919050565b60006126e3601383612ce8565b91507f4f6e6c79206e65757472616c20766f74657221000000000000000000000000006000830152602082019050919050565b6000612723601083612ce8565b91507f5452414e53464552204641494c454421000000000000000000000000000000006000830152602082019050919050565b6000612763602183612ce8565b91507f4f6e6c7920436c69656e74206f7220566f7465722063616e207265676973746560008301527f72000000000000000000000000000000000000000000000000000000000000006020830152604082019050919050565b600060408301600083015184820360008601526127d9828261225a565b915050602083015184820360208601526127f3828261225a565b9150508091505092915050565b61280981612d7d565b82525050565b61281881612d7d565b82525050565b60006128298261263c565b9150819050919050565b6000602082019050612848600083018461224b565b92915050565b600061014082019050612864600083018d61221e565b612871602083018c61221e565b61287e604083018b61280f565b61288b606083018a612374565b6128986080830189612374565b6128a560a0830188612374565b81810360c08301526128b78187612383565b905081810360e08301526128cb8186612383565b90508181036101008301526128e081856122b8565b90508181036101208301526128f581846122b8565b90509b9a5050505050505050505050565b60006101208201905061291c600083018c61222d565b612929602083018b61222d565b612936604083018a61280f565b6129436060830189612374565b6129506080830188612374565b61295d60a0830187612374565b81810360c083015261296f8186612383565b905081810360e08301526129838185612383565b905081810361010083015261299881846127bc565b90509a9950505050505050505050565b60006040820190506129bd600083018561224b565b6129ca602083018461280f565b9392505050565b600060208201905081810360008301526129eb8184612316565b905092915050565b60006020820190508181036000830152612a0c816123bc565b9050919050565b60006020820190508181036000830152612a2c816123fc565b9050919050565b60006020820190508181036000830152612a4c8161243c565b9050919050565b60006020820190508181036000830152612a6c8161247c565b9050919050565b60006020820190508181036000830152612a8c816124bc565b9050919050565b60006020820190508181036000830152612aac816124fc565b9050919050565b60006020820190508181036000830152612acc8161253c565b9050919050565b60006020820190508181036000830152612aec8161257c565b9050919050565b60006020820190508181036000830152612b0c816125bc565b9050919050565b60006020820190508181036000830152612b2c816125fc565b9050919050565b60006020820190508181036000830152612b4c81612656565b9050919050565b60006020820190508181036000830152612b6c81612696565b9050919050565b60006020820190508181036000830152612b8c816126d6565b9050919050565b60006020820190508181036000830152612bac81612716565b9050919050565b60006020820190508181036000830152612bcc81612756565b9050919050565b6000602082019050612be8600083018461280f565b92915050565b6000604051905081810181811067ffffffffffffffff82111715612c1557612c14612ed8565b5b8060405250919050565b600067ffffffffffffffff821115612c3a57612c39612ed8565b5b601f19601f8301169050602081019050919050565b6000819050602082019050919050565b6000819050602082019050919050565b600081519050919050565b600081519050919050565b600081519050919050565b6000602082019050919050565b6000602082019050919050565b600082825260208201905092915050565b600082825260208201905092915050565b600082825260208201905092915050565b600081905092915050565b600082825260208201905092915050565b6000612d0482612d7d565b9150612d0f83612d7d565b925082821015612d2257612d21612e7a565b5b828203905092915050565b6000612d3882612d5d565b9050919050565b6000612d4a82612d5d565b9050919050565b60008115159050919050565b600073ffffffffffffffffffffffffffffffffffffffff82169050919050565b6000819050919050565b6000612d9282612d99565b9050919050565b6000612da482612dab565b9050919050565b6000612db682612d5d565b9050919050565b82818337600083830152505050565b60005b83811015612dea578082015181840152602081019050612dcf565b83811115612df9576000848401525b50505050565b60006002820490506001821680612e1757607f821691505b60208210811415612e2b57612e2a612ea9565b5b50919050565b6000612e3c82612d7d565b91507fffffffffffffffffffffffffffffffffffffffffffffffffffffffffffffffff821415612e6f57612e6e612e7a565b5b600182019050919050565b7f4e487b7100000000000000000000000000000000000000000000000000000000600052601160045260246000fd5b7f4e487b7100000000000000000000000000000000000000000000000000000000600052602260045260246000fd5b7f4e487b7100000000000000000000000000000000000000000000000000000000600052604160045260246000fd5b6000601f19601f8301169050919050565b612f2181612d2d565b8114612f2c57600080fd5b50565b612f3881612d51565b8114612f4357600080fd5b50565b612f4f81612d7d565b8114612f5a57600080fd5b5056fea26469706673582212206215fd3455a4c74e76d9810a6f1de227cec0a132ffd8a4996b1e58c0757036c864736f6c63430008000033",
  "linkReferences": {},
  "deployedLinkReferences": {}
}