{
  "_format": "hh-sol-artifact-1",
  "contractName": "EscrowManager",
  "sourceName": "contracts/EscrowManager.sol",
  "abi": [
    {
      "inputs": [],
      "stateMutability": "nonpayable",
      "type": "constructor"
    },
    {
      "anonymous": false,
      "inputs": [
        {
          "indexed": false,
          "internalType": "uint256",
          "name": "escrowId",
          "type": "uint256"
        }
      ],
      "name": "DisputeResolved",
      "type": "event"
    },
    {
      "anonymous": false,
      "inputs": [
        {
          "indexed": false,
          "internalType": "uint256",
          "name": "escrowId",
          "type": "uint256"
        }
      ],
      "name": "EscrowCreated",
      "type": "event"
    },
    {
      "anonymous": false,
      "inputs": [
        {
          "indexed": false,
          "internalType": "address",
          "name": "client",
          "type": "address"
        },
        {
          "indexed": false,
          "internalType": "address",
          "name": "worker",
          "type": "address"
        },
        {
          "indexed": false,
          "internalType": "uint256",
          "name": "amount",
          "type": "uint256"
        },
        {
          "indexed": false,
          "internalType": "bool",
          "name": "clientDecisionGiven",
          "type": "bool"
        },
        {
          "indexed": false,
          "internalType": "bool",
          "name": "isSettled",
          "type": "bool"
        },
        {
          "indexed": false,
          "internalType": "bool",
          "name": "isDisputed",
          "type": "bool"
        },
        {
          "indexed": false,
          "internalType": "string",
          "name": "agreement",
          "type": "string"
        },
        {
          "indexed": false,
          "internalType": "string",
          "name": "submission",
          "type": "string"
        },
        {
          "indexed": false,
          "internalType": "address[]",
          "name": "votesYes",
          "type": "address[]"
        },
        {
          "indexed": false,
          "internalType": "address[]",
          "name": "votesNo",
          "type": "address[]"
        }
      ],
      "name": "EscrowDetails",
      "type": "event"
    },
    {
      "anonymous": false,
      "inputs": [
        {
          "indexed": false,
          "internalType": "uint256",
          "name": "escrowId",
          "type": "uint256"
        }
      ],
      "name": "EscrowSettled",
      "type": "event"
    },
    {
      "anonymous": false,
      "inputs": [
        {
          "indexed": false,
          "internalType": "address",
          "name": "user",
          "type": "address"
        },
        {
          "indexed": false,
          "internalType": "uint256",
          "name": "userType",
          "type": "uint256"
        }
      ],
      "name": "UserRegistered",
      "type": "event"
    },
    {
      "anonymous": false,
      "inputs": [
        {
          "indexed": false,
          "internalType": "uint256",
          "name": "escrowId",
          "type": "uint256"
        }
      ],
      "name": "WorkApproved",
      "type": "event"
    },
    {
      "anonymous": false,
      "inputs": [
        {
          "indexed": false,
          "internalType": "uint256",
          "name": "escrowId",
          "type": "uint256"
        }
      ],
      "name": "WorkRejected",
      "type": "event"
    },
    {
      "anonymous": false,
      "inputs": [
        {
          "indexed": false,
          "internalType": "uint256",
          "name": "escrowId",
          "type": "uint256"
        }
      ],
      "name": "WorkSubmitted",
      "type": "event"
    },
    {
      "inputs": [
        {
          "internalType": "bool",
          "name": "_approval",
          "type": "bool"
        },
        {
          "internalType": "uint256",
          "name": "_escrowId",
          "type": "uint256"
        }
      ],
      "name": "approveWork",
      "outputs": [],
      "stateMutability": "nonpayable",
      "type": "function"
    },
    {
      "inputs": [
        {
          "internalType": "address",
          "name": "",
          "type": "address"
        },
        {
          "internalType": "uint256",
          "name": "",
          "type": "uint256"
        }
      ],
      "name": "clientEscrowIdsMapping",
      "outputs": [
        {
          "internalType": "uint256",
          "name": "",
          "type": "uint256"
        }
      ],
      "stateMutability": "view",
      "type": "function"
    },
    {
      "inputs": [
        {
          "internalType": "address",
          "name": "_worker",
          "type": "address"
        },
        {
          "internalType": "uint256",
          "name": "_amount",
          "type": "uint256"
        },
        {
          "internalType": "string",
          "name": "_agreement",
          "type": "string"
        }
      ],
      "name": "createEscrow",
      "outputs": [],
      "stateMutability": "payable",
      "type": "function"
    },
    {
      "inputs": [
        {
          "internalType": "uint256",
          "name": "_escrowId",
          "type": "uint256"
        }
      ],
      "name": "disburseFunds",
      "outputs": [],
      "stateMutability": "nonpayable",
      "type": "function"
    },
    {
      "inputs": [],
      "name": "escrowAdmin",
      "outputs": [
        {
          "internalType": "address",
          "name": "",
          "type": "address"
        }
      ],
      "stateMutability": "view",
      "type": "function"
    },
    {
      "inputs": [
        {
          "internalType": "uint256",
          "name": "",
          "type": "uint256"
        }
      ],
      "name": "escrowIds",
      "outputs": [
        {
          "internalType": "uint256",
          "name": "",
          "type": "uint256"
        }
      ],
      "stateMutability": "view",
      "type": "function"
    },
    {
      "inputs": [
        {
          "internalType": "uint256",
          "name": "",
          "type": "uint256"
        }
      ],
      "name": "escrows",
      "outputs": [
        {
          "internalType": "address payable",
          "name": "client",
          "type": "address"
        },
        {
          "internalType": "address payable",
          "name": "worker",
          "type": "address"
        },
        {
          "internalType": "uint256",
          "name": "amount",
          "type": "uint256"
        },
        {
          "internalType": "bool",
          "name": "clientDecisionGiven",
          "type": "bool"
        },
        {
          "internalType": "bool",
          "name": "isSettled",
          "type": "bool"
        },
        {
          "internalType": "bool",
          "name": "isDisputed",
          "type": "bool"
        },
        {
          "internalType": "string",
          "name": "agreement",
          "type": "string"
        },
        {
          "internalType": "string",
          "name": "submission",
          "type": "string"
        },
        {
          "components": [
            {
              "internalType": "address[]",
              "name": "yes",
              "type": "address[]"
            },
            {
              "internalType": "address[]",
              "name": "no",
              "type": "address[]"
            }
          ],
          "internalType": "struct EscrowManager.Votes",
          "name": "votes",
          "type": "tuple"
        }
      ],
      "stateMutability": "view",
      "type": "function"
    },
    {
      "inputs": [],
      "name": "getClientEscrowIds",
      "outputs": [
        {
          "internalType": "uint256[]",
          "name": "",
          "type": "uint256[]"
        }
      ],
      "stateMutability": "view",
      "type": "function"
    },
    {
      "inputs": [
        {
          "internalType": "uint256",
          "name": "_escrowId",
          "type": "uint256"
        }
      ],
      "name": "getEscrowDetails",
      "outputs": [],
      "stateMutability": "nonpayable",
      "type": "function"
    },
    {
      "inputs": [],
      "name": "getUserType",
      "outputs": [
        {
          "internalType": "uint256",
          "name": "",
          "type": "uint256"
        }
      ],
      "stateMutability": "view",
      "type": "function"
    },
    {
      "inputs": [],
      "name": "getWorkerEscrowIds",
      "outputs": [
        {
          "internalType": "uint256[]",
          "name": "",
          "type": "uint256[]"
        }
      ],
      "stateMutability": "view",
      "type": "function"
    },
    {
      "inputs": [
        {
          "internalType": "uint256",
          "name": "_userType",
          "type": "uint256"
        }
      ],
      "name": "registerUser",
      "outputs": [],
      "stateMutability": "nonpayable",
      "type": "function"
    },
    {
      "inputs": [
        {
          "internalType": "uint256",
          "name": "_escrowId",
          "type": "uint256"
        },
        {
          "internalType": "string",
          "name": "_submission",
          "type": "string"
        }
      ],
      "name": "submitWork",
      "outputs": [],
      "stateMutability": "nonpayable",
      "type": "function"
    },
    {
      "inputs": [
        {
          "internalType": "address",
          "name": "",
          "type": "address"
        }
      ],
      "name": "userType",
      "outputs": [
        {
          "internalType": "uint256",
          "name": "",
          "type": "uint256"
        }
      ],
      "stateMutability": "view",
      "type": "function"
    },
    {
      "inputs": [
        {
          "internalType": "uint256",
          "name": "_escrowId",
          "type": "uint256"
        },
        {
          "internalType": "bool",
          "name": "_validWork",
          "type": "bool"
        }
      ],
      "name": "voteForDispute",
      "outputs": [],
      "stateMutability": "nonpayable",
      "type": "function"
    },
    {
      "inputs": [
        {
          "internalType": "address",
          "name": "",
          "type": "address"
        }
      ],
      "name": "voters",
      "outputs": [
        {
          "internalType": "uint256",
          "name": "",
          "type": "uint256"
        }
      ],
      "stateMutability": "view",
      "type": "function"
    },
    {
      "inputs": [
        {
          "internalType": "address",
          "name": "",
          "type": "address"
        },
        {
          "internalType": "uint256",
          "name": "",
          "type": "uint256"
        }
      ],
      "name": "workerEscrowIdsMapping",
      "outputs": [
        {
          "internalType": "uint256",
          "name": "",
          "type": "uint256"
        }
      ],
      "stateMutability": "view",
      "type": "function"
    }
  ],
  "bytecode": "0x6080604052600160055534801561001557600080fd5b50336000806101000a81548173ffffffffffffffffffffffffffffffffffffffff021916908373ffffffffffffffffffffffffffffffffffffffff1602179055506001600760003373ffffffffffffffffffffffffffffffffffffffff1673ffffffffffffffffffffffffffffffffffffffff16815260200190815260200160002081905550613303806100aa6000396000f3fe6080604052600436106100fe5760003560e01c8063a3ec138d11610095578063cc212a4811610064578063cc212a4814610375578063da39fd881461039e578063da8accf9146103c7578063e1e00c10146103f0578063e334e8dd1461041b576100fe565b8063a3ec138d146102a9578063b83458b0146102e6578063b996ec2a14610323578063ba92982f1461034c576100fe565b806341990077116100d157806341990077146101eb578063786f12951461021657806381d79b4b146102535780638761fb7c1461027e576100fe565b8063012f52ee1461010357806317db2706146101485780631bbfae0e1461018557806332e184ee146101ae575b600080fd5b34801561010f57600080fd5b5061012a6004803603810190610125919061243c565b610437565b60405161013f99989796959493929190612c06565b60405180910390f35b34801561015457600080fd5b5061016f600480360381019061016a919061235d565b610722565b60405161017c9190612f27565b60405180910390f35b34801561019157600080fd5b506101ac60048036038101906101a7919061243c565b610753565b005b3480156101ba57600080fd5b506101d560048036038101906101d0919061235d565b6108a9565b6040516101e29190612f27565b60405180910390f35b3480156101f757600080fd5b506102006108da565b60405161020d9190612f27565b60405180910390f35b34801561022257600080fd5b5061023d6004803603810190610238919061243c565b610921565b60405161024a9190612f27565b60405180910390f35b34801561025f57600080fd5b50610268610945565b6040516102759190612cd1565b60405180910390f35b34801561028a57600080fd5b50610293610a5f565b6040516102a09190612b33565b60405180910390f35b3480156102b557600080fd5b506102d060048036038101906102cb9190612334565b610a83565b6040516102dd9190612f27565b60405180910390f35b3480156102f257600080fd5b5061030d60048036038101906103089190612334565b610a9b565b60405161031a9190612f27565b60405180910390f35b34801561032f57600080fd5b5061034a6004803603810190610345919061243c565b610ab3565b005b34801561035857600080fd5b50610373600480360381019061036e9190612400565b610f56565b005b34801561038157600080fd5b5061039c6004803603810190610397919061243c565b6110c4565b005b3480156103aa57600080fd5b506103c560048036038101906103c09190612465565b61151a565b005b3480156103d357600080fd5b506103ee60048036038101906103e991906124a1565b6118a6565b005b3480156103fc57600080fd5b506104056119f8565b6040516104129190612cd1565b60405180910390f35b61043560048036038101906104309190612399565b611b12565b005b60016020528060005260406000206000915090508060000160009054906101000a900473ffffffffffffffffffffffffffffffffffffffff16908060010160009054906101000a900473ffffffffffffffffffffffffffffffffffffffff16908060020154908060030160009054906101000a900460ff16908060030160019054906101000a900460ff16908060030160029054906101000a900460ff16908060040180546104e59061316f565b80601f01602080910402602001604051908101604052809291908181526020018280546105119061316f565b801561055e5780601f106105335761010080835404028352916020019161055e565b820191906000526020600020905b81548152906001019060200180831161054157829003601f168201915b5050505050908060050180546105739061316f565b80601f016020809104026020016040519081016040528092919081815260200182805461059f9061316f565b80156105ec5780601f106105c1576101008083540402835291602001916105ec565b820191906000526020600020905b8154815290600101906020018083116105cf57829003601f168201915b505050505090806006016040518060400160405290816000820180548060200260200160405190810160405280929190818152602001828054801561068657602002820191906000526020600020905b8160009054906101000a900473ffffffffffffffffffffffffffffffffffffffff1673ffffffffffffffffffffffffffffffffffffffff168152602001906001019080831161063c575b505050505081526020016001820180548060200260200160405190810160405280929190818152602001828054801561071457602002820191906000526020600020905b8160009054906101000a900473ffffffffffffffffffffffffffffffffffffffff1673ffffffffffffffffffffffffffffffffffffffff16815260200190600101908083116106ca575b505050505081525050905089565b6004602052816000526040600020818154811061073e57600080fd5b90600052602060002001600091509150505481565b6000600760003373ffffffffffffffffffffffffffffffffffffffff1673ffffffffffffffffffffffffffffffffffffffff16815260200190815260200160002054146107d5576040517f08c379a00000000000000000000000000000000000000000000000000000000081526004016107cc90612e07565b60405180910390fd5b600060028214806107e65750600482145b905080610828576040517f08c379a000000000000000000000000000000000000000000000000000000000815260040161081f90612f07565b60405180910390fd5b81600760003373ffffffffffffffffffffffffffffffffffffffff1673ffffffffffffffffffffffffffffffffffffffff168152602001908152602001600020819055507fe29d35093005f4d575e1003753426b57a7f64378ba73332eef9c6ccc2b8decd6338360405161089d929190612ca8565b60405180910390a15050565b600360205281600052604060002081815481106108c557600080fd5b90600052602060002001600091509150505481565b6000600760003373ffffffffffffffffffffffffffffffffffffffff1673ffffffffffffffffffffffffffffffffffffffff16815260200190815260200160002054905090565b6006818154811061093157600080fd5b906000526020600020016000915090505481565b60606000600360003373ffffffffffffffffffffffffffffffffffffffff1673ffffffffffffffffffffffffffffffffffffffff16815260200190815260200160002080549050116109cc576040517f08c379a00000000000000000000000000000000000000000000000000000000081526004016109c390612e87565b60405180910390fd5b600360003373ffffffffffffffffffffffffffffffffffffffff1673ffffffffffffffffffffffffffffffffffffffff168152602001908152602001600020805480602002602001604051908101604052809291908181526020018280548015610a5557602002820191906000526020600020905b815481526020019060010190808311610a41575b5050505050905090565b60008054906101000a900473ffffffffffffffffffffffffffffffffffffffff1681565b60026020528060005260406000206000915090505481565b60076020528060005260406000206000915090505481565b600073ffffffffffffffffffffffffffffffffffffffff166001600083815260200190815260200160002060000160009054906101000a900473ffffffffffffffffffffffffffffffffffffffff1673ffffffffffffffffffffffffffffffffffffffff161415610b59576040517f08c379a0000000000000000000000000000000000000000000000000000000008152600401610b5090612d87565b60405180910390fd5b600060016000838152602001908152602001600020604051806101200160405290816000820160009054906101000a900473ffffffffffffffffffffffffffffffffffffffff1673ffffffffffffffffffffffffffffffffffffffff1673ffffffffffffffffffffffffffffffffffffffff1681526020016001820160009054906101000a900473ffffffffffffffffffffffffffffffffffffffff1673ffffffffffffffffffffffffffffffffffffffff1673ffffffffffffffffffffffffffffffffffffffff168152602001600282015481526020016003820160009054906101000a900460ff161515151581526020016003820160019054906101000a900460ff161515151581526020016003820160029054906101000a900460ff16151515158152602001600482018054610c919061316f565b80601f0160208091040260200160405190810160405280929190818152602001828054610cbd9061316f565b8015610d0a5780601f10610cdf57610100808354040283529160200191610d0a565b820191906000526020600020905b815481529060010190602001808311610ced57829003601f168201915b50505050508152602001600582018054610d239061316f565b80601f0160208091040260200160405190810160405280929190818152602001828054610d4f9061316f565b8015610d9c5780601f10610d7157610100808354040283529160200191610d9c565b820191906000526020600020905b815481529060010190602001808311610d7f57829003601f168201915b505050505081526020016006820160405180604001604052908160008201805480602002602001604051908101604052809291908181526020018280548015610e3a57602002820191906000526020600020905b8160009054906101000a900473ffffffffffffffffffffffffffffffffffffffff1673ffffffffffffffffffffffffffffffffffffffff1681526020019060010190808311610df0575b5050505050815260200160018201805480602002602001604051908101604052809291908181526020018280548015610ec857602002820191906000526020600020905b8160009054906101000a900473ffffffffffffffffffffffffffffffffffffffff1673ffffffffffffffffffffffffffffffffffffffff1681526020019060010190808311610e7e575b5050505050815250508152505090507f5d86d94b68cfd39dc2854cca58ba71f5d805bf12963b8a84a23ac1471e9f7955816000015182602001518360400151846060015185608001518660a001518760c001518860e00151896101000151600001518a610100015160200151604051610f4a9a99989796959493929190612b4e565b60405180910390a15050565b6000600160008381526020019081526020016000206005018054610f799061316f565b905011610fbb576040517f08c379a0000000000000000000000000000000000000000000000000000000008152600401610fb290612da7565b60405180910390fd5b600180600083815260200190815260200160002060030160006101000a81548160ff021916908315150217905550811561105a5760006001600083815260200190815260200160002060030160026101000a81548160ff0219169083151502179055507fe021b70c90c04cb1a4fae9fbcf358044aab6b86f01086a2af93b8e5c33abc2b68160405161104d9190612f27565b60405180910390a16110c0565b600180600083815260200190815260200160002060030160026101000a81548160ff0219169083151502179055507f96d5412ab942f3049daf937b483dc1312af9b021b1b0a2ab2219a4e192484b25816040516110b79190612f27565b60405180910390a15b5050565b3360008054906101000a900473ffffffffffffffffffffffffffffffffffffffff1673ffffffffffffffffffffffffffffffffffffffff168173ffffffffffffffffffffffffffffffffffffffff1614611153576040517f08c379a000000000000000000000000000000000000000000000000000000000815260040161114a90612e27565b60405180910390fd5b816001600082815260200190815260200160002060030160029054906101000a900460ff16156111b8576040517f08c379a00000000000000000000000000000000000000000000000000000000081526004016111af90612e67565b60405180910390fd5b826001600082815260200190815260200160002060030160019054906101000a900460ff161561121d576040517f08c379a000000000000000000000000000000000000000000000000000000000815260040161121490612ea7565b60405180910390fd5b600060016000868152602001908152602001600020905060008160060160010180549050826006016000018054905010159050600081611281578260000160009054906101000a900473ffffffffffffffffffffffffffffffffffffffff166112a7565b8260010160009054906101000a900473ffffffffffffffffffffffffffffffffffffffff165b905060005a90506112ed6040518060400160405280600a81526020017f67617344656275673a200000000000000000000000000000000000000000000081525082611f69565b6113306040518060400160405280601081526020017f5f657363726f772e616d6f756e743a20000000000000000000000000000000008152508560020154611f69565b6000808373ffffffffffffffffffffffffffffffffffffffff16866002015460405161135b90612b1e565b60006040518083038185875af1925050503d8060008114611398576040519150601f19603f3d011682016040523d82523d6000602084013e61139d565b606091505b50915091505a92506113e46040518060400160405280600a81526020017f67617344656275673a200000000000000000000000000000000000000000000081525084611f69565b6114226040518060400160405280601f81526020017f7072696e74696e6720746865206461746120676976656e2062792063616c6c00815250612005565b61142b8161209e565b8161146b576040517f08c379a000000000000000000000000000000000000000000000000000000000815260040161146290612ee7565b60405180910390fd5b6114a96040518060400160405280601c81526020017f646973627572736546756e64732829207061796d656e7420646f6e6500000000815250612005565b60018060008c815260200190815260200160002060030160016101000a81548160ff0219169083151502179055507f3fb211d55ece51bd2ce6d1abaf29866ac8b6effbbc771f0eab5e7a9912763e588a6040516115069190612f27565b60405180910390a150505050505050505050565b81600073ffffffffffffffffffffffffffffffffffffffff166001600083815260200190815260200160002060000160009054906101000a900473ffffffffffffffffffffffffffffffffffffffff1673ffffffffffffffffffffffffffffffffffffffff1614156115c1576040517f08c379a00000000000000000000000000000000000000000000000000000000081526004016115b890612d87565b60405180910390fd5b60006001600085815260200190815260200160002090508060030160029054906101000a900460ff16611629576040517f08c379a000000000000000000000000000000000000000000000000000000000815260040161162090612de7565b60405180910390fd5b60008054906101000a900473ffffffffffffffffffffffffffffffffffffffff1673ffffffffffffffffffffffffffffffffffffffff163373ffffffffffffffffffffffffffffffffffffffff16141580156116d557508060000160009054906101000a900473ffffffffffffffffffffffffffffffffffffffff1673ffffffffffffffffffffffffffffffffffffffff163373ffffffffffffffffffffffffffffffffffffffff1614155b801561173157508060010160009054906101000a900473ffffffffffffffffffffffffffffffffffffffff1673ffffffffffffffffffffffffffffffffffffffff163373ffffffffffffffffffffffffffffffffffffffff1614155b611770576040517f08c379a000000000000000000000000000000000000000000000000000000000815260040161176790612ec7565b60405180910390fd5b82156117e35780600601600001339080600181540180825580915050600190039060005260206000200160009091909190916101000a81548173ffffffffffffffffffffffffffffffffffffffff021916908373ffffffffffffffffffffffffffffffffffffffff16021790555061184c565b80600601600101339080600181540180825580915050600190039060005260206000200160009091909190916101000a81548173ffffffffffffffffffffffffffffffffffffffff021916908373ffffffffffffffffffffffffffffffffffffffff1602179055505b60008160030160026101000a81548160ff0219169083151502179055507f57cce005d496355471bb5269f1dea3d6c81b6ac14c1d74ba28aefb022357013b846040516118989190612f27565b60405180910390a150505050565b81600073ffffffffffffffffffffffffffffffffffffffff166001600083815260200190815260200160002060000160009054906101000a900473ffffffffffffffffffffffffffffffffffffffff1673ffffffffffffffffffffffffffffffffffffffff16141561194d576040517f08c379a000000000000000000000000000000000000000000000000000000000815260040161194490612d87565b60405180910390fd5b6000825111611991576040517f08c379a000000000000000000000000000000000000000000000000000000000815260040161198890612e47565b60405180910390fd5b816001600085815260200190815260200160002060050190805190602001906119bb929190612160565b507f37da35a9cc37616d182b3f359f2fff61f738f090deb49c6a76a9c84c2462ba0e836040516119eb9190612f27565b60405180910390a1505050565b60606000600460003373ffffffffffffffffffffffffffffffffffffffff1673ffffffffffffffffffffffffffffffffffffffff1681526020019081526020016000208054905011611a7f576040517f08c379a0000000000000000000000000000000000000000000000000000000008152600401611a7690612d67565b60405180910390fd5b600460003373ffffffffffffffffffffffffffffffffffffffff1673ffffffffffffffffffffffffffffffffffffffff168152602001908152602001600020805480602002602001604051908101604052809291908181526020018280548015611b0857602002820191906000526020600020905b815481526020019060010190808311611af4575b5050505050905090565b60008211611b55576040517f08c379a0000000000000000000000000000000000000000000000000000000008152600401611b4c90612dc7565b60405180910390fd5b6060806040518061012001604052803373ffffffffffffffffffffffffffffffffffffffff1681526020018673ffffffffffffffffffffffffffffffffffffffff16815260200185815260200160001515815260200160001515815260200160001515815260200184815260200160405180602001604052806000815250815260200160405180604001604052808581526020018481525081525060016000600554815260200190815260200160002060008201518160000160006101000a81548173ffffffffffffffffffffffffffffffffffffffff021916908373ffffffffffffffffffffffffffffffffffffffff16021790555060208201518160010160006101000a81548173ffffffffffffffffffffffffffffffffffffffff021916908373ffffffffffffffffffffffffffffffffffffffff1602179055506040820151816002015560608201518160030160006101000a81548160ff02191690831515021790555060808201518160030160016101000a81548160ff02191690831515021790555060a08201518160030160026101000a81548160ff02191690831515021790555060c0820151816004019080519060200190611d19929190612160565b5060e0820151816005019080519060200190611d36929190612160565b50610100820151816006016000820151816000019080519060200190611d5d9291906121e6565b506020820151816001019080519060200190611d7a9291906121e6565b505050905050600660055490806001815401808255809150506001900390600052602060002001600090919091909150556002600760003373ffffffffffffffffffffffffffffffffffffffff1673ffffffffffffffffffffffffffffffffffffffff168152602001908152602001600020819055506003600760008773ffffffffffffffffffffffffffffffffffffffff1673ffffffffffffffffffffffffffffffffffffffff16815260200190815260200160002081905550600360003373ffffffffffffffffffffffffffffffffffffffff1673ffffffffffffffffffffffffffffffffffffffff1681526020019081526020016000206005549080600181540180825580915050600190039060005260206000200160009091909190915055600460008673ffffffffffffffffffffffffffffffffffffffff1673ffffffffffffffffffffffffffffffffffffffff168152602001908152602001600020600554908060018154018082558091505060019003906000526020600020016000909190919091505560056000815480929190611f18906131a1565b91905055507fca802b28938736a358ed2e446f2c9707d29773a4c3bcc5d12dc8b949569f96f46001600554611f4d9190613069565b604051611f5a9190612f27565b60405180910390a15050505050565b6120018282604051602401611f7f929190612d37565b6040516020818303038152906040527f9710a9d0000000000000000000000000000000000000000000000000000000007bffffffffffffffffffffffffffffffffffffffffffffffffffffffff19166020820180517bffffffffffffffffffffffffffffffffffffffffffffffffffffffff8381831617835250505050612137565b5050565b61209b816040516024016120199190612d15565b6040516020818303038152906040527f41304fac000000000000000000000000000000000000000000000000000000007bffffffffffffffffffffffffffffffffffffffffffffffffffffffff19166020820180517bffffffffffffffffffffffffffffffffffffffffffffffffffffffff8381831617835250505050612137565b50565b612134816040516024016120b29190612cf3565b6040516020818303038152906040527f0be77f56000000000000000000000000000000000000000000000000000000007bffffffffffffffffffffffffffffffffffffffffffffffffffffffff19166020820180517bffffffffffffffffffffffffffffffffffffffffffffffffffffffff8381831617835250505050612137565b50565b60008151905060006a636f6e736f6c652e6c6f679050602083016000808483855afa5050505050565b82805461216c9061316f565b90600052602060002090601f01602090048101928261218e57600085556121d5565b82601f106121a757805160ff19168380011785556121d5565b828001600101855582156121d5579182015b828111156121d45782518255916020019190600101906121b9565b5b5090506121e29190612270565b5090565b82805482825590600052602060002090810192821561225f579160200282015b8281111561225e5782518260006101000a81548173ffffffffffffffffffffffffffffffffffffffff021916908373ffffffffffffffffffffffffffffffffffffffff16021790555091602001919060010190612206565b5b50905061226c9190612270565b5090565b5b80821115612289576000816000905550600101612271565b5090565b60006122a061229b84612f73565b612f42565b9050828152602081018484840111156122b857600080fd5b6122c384828561312d565b509392505050565b6000813590506122da81613288565b92915050565b6000813590506122ef8161329f565b92915050565b600082601f83011261230657600080fd5b813561231684826020860161228d565b91505092915050565b60008135905061232e816132b6565b92915050565b60006020828403121561234657600080fd5b6000612354848285016122cb565b91505092915050565b6000806040838503121561237057600080fd5b600061237e858286016122cb565b925050602061238f8582860161231f565b9150509250929050565b6000806000606084860312156123ae57600080fd5b60006123bc868287016122cb565b93505060206123cd8682870161231f565b925050604084013567ffffffffffffffff8111156123ea57600080fd5b6123f6868287016122f5565b9150509250925092565b6000806040838503121561241357600080fd5b6000612421858286016122e0565b92505060206124328582860161231f565b9150509250929050565b60006020828403121561244e57600080fd5b600061245c8482850161231f565b91505092915050565b6000806040838503121561247857600080fd5b60006124868582860161231f565b9250506020612497858286016122e0565b9150509250929050565b600080604083850312156124b457600080fd5b60006124c28582860161231f565b925050602083013567ffffffffffffffff8111156124df57600080fd5b6124eb858286016122f5565b9150509250929050565b60006125018383612543565b60208301905092915050565b60006125198383612b00565b60208301905092915050565b61252e816130f7565b82525050565b61253d816130af565b82525050565b61254c8161309d565b82525050565b61255b8161309d565b82525050565b600061256c82612fc3565b6125768185613009565b935061258183612fa3565b8060005b838110156125b257815161259988826124f5565b97506125a483612fef565b925050600181019050612585565b5085935050505092915050565b60006125ca82612fc3565b6125d4818561301a565b93506125df83612fa3565b8060005b838110156126105781516125f788826124f5565b975061260283612fef565b9250506001810190506125e3565b5085935050505092915050565b600061262882612fce565b612632818561302b565b935061263d83612fb3565b8060005b8381101561266e578151612655888261250d565b975061266083612ffc565b925050600181019050612641565b5085935050505092915050565b612684816130c1565b82525050565b600061269582612fd9565b61269f818561303c565b93506126af81856020860161313c565b6126b881613277565b840191505092915050565b60006126ce82612fe4565b6126d88185613058565b93506126e881856020860161313c565b6126f181613277565b840191505092915050565b6000612709601583613058565b91507f576f726b657220646f6573206e6f7420657869737400000000000000000000006000830152602082019050919050565b6000612749601683613058565b91507f457363726f7720646f6573206e6f7420657869737421000000000000000000006000830152602082019050919050565b6000612789601d83613058565b91507f43616e6e6f74206a7564676520756e7375626d697474656420776f726b0000006000830152602082019050919050565b60006127c9601d83613058565b91507f457363726f7720616d6f756e742073686f756c64206e6f7420626520300000006000830152602082019050919050565b6000612809601883613058565b91507f4469737075746520616c7265616479207265736f6c76656400000000000000006000830152602082019050919050565b6000612849601483613058565b91507f5573657220616c726561647920657869737473210000000000000000000000006000830152602082019050919050565b6000612889600983613058565b91507f4e6f742041646d696e00000000000000000000000000000000000000000000006000830152602082019050919050565b60006128c9601083613058565b91507f456d707479207375626d697373696f6e000000000000000000000000000000006000830152602082019050919050565b6000612909601c83613058565b91507f457363726f772064697370757465206e6f74207265736f6c76656421000000006000830152602082019050919050565b6000612949601583613058565b91507f436c69656e7420646f6573206e6f7420657869737400000000000000000000006000830152602082019050919050565b600061298960008361304d565b9150600082019050919050565b60006129a3601683613058565b91507f457363726f7720616c726561647920736574746c6564000000000000000000006000830152602082019050919050565b60006129e3601383613058565b91507f4f6e6c79206e65757472616c20766f74657221000000000000000000000000006000830152602082019050919050565b6000612a23601083613058565b91507f5452414e53464552204641494c454421000000000000000000000000000000006000830152602082019050919050565b6000612a63602183613058565b91507f4f6e6c7920436c69656e74206f7220566f7465722063616e207265676973746560008301527f72000000000000000000000000000000000000000000000000000000000000006020830152604082019050919050565b60006040830160008301518482036000860152612ad98282612561565b91505060208301518482036020860152612af38282612561565b9150508091505092915050565b612b09816130ed565b82525050565b612b18816130ed565b82525050565b6000612b298261297c565b9150819050919050565b6000602082019050612b486000830184612552565b92915050565b600061014082019050612b64600083018d612525565b612b71602083018c612525565b612b7e604083018b612b0f565b612b8b606083018a61267b565b612b98608083018961267b565b612ba560a083018861267b565b81810360c0830152612bb781876126c3565b905081810360e0830152612bcb81866126c3565b9050818103610100830152612be081856125bf565b9050818103610120830152612bf581846125bf565b90509b9a5050505050505050505050565b600061012082019050612c1c600083018c612534565b612c29602083018b612534565b612c36604083018a612b0f565b612c43606083018961267b565b612c50608083018861267b565b612c5d60a083018761267b565b81810360c0830152612c6f81866126c3565b905081810360e0830152612c8381856126c3565b9050818103610100830152612c988184612abc565b90509a9950505050505050505050565b6000604082019050612cbd6000830185612552565b612cca6020830184612b0f565b9392505050565b60006020820190508181036000830152612ceb818461261d565b905092915050565b60006020820190508181036000830152612d0d818461268a565b905092915050565b60006020820190508181036000830152612d2f81846126c3565b905092915050565b60006040820190508181036000830152612d5181856126c3565b9050612d606020830184612b0f565b9392505050565b60006020820190508181036000830152612d80816126fc565b9050919050565b60006020820190508181036000830152612da08161273c565b9050919050565b60006020820190508181036000830152612dc08161277c565b9050919050565b60006020820190508181036000830152612de0816127bc565b9050919050565b60006020820190508181036000830152612e00816127fc565b9050919050565b60006020820190508181036000830152612e208161283c565b9050919050565b60006020820190508181036000830152612e408161287c565b9050919050565b60006020820190508181036000830152612e60816128bc565b9050919050565b60006020820190508181036000830152612e80816128fc565b9050919050565b60006020820190508181036000830152612ea08161293c565b9050919050565b60006020820190508181036000830152612ec081612996565b9050919050565b60006020820190508181036000830152612ee0816129d6565b9050919050565b60006020820190508181036000830152612f0081612a16565b9050919050565b60006020820190508181036000830152612f2081612a56565b9050919050565b6000602082019050612f3c6000830184612b0f565b92915050565b6000604051905081810181811067ffffffffffffffff82111715612f6957612f68613248565b5b8060405250919050565b600067ffffffffffffffff821115612f8e57612f8d613248565b5b601f19601f8301169050602081019050919050565b6000819050602082019050919050565b6000819050602082019050919050565b600081519050919050565b600081519050919050565b600081519050919050565b600081519050919050565b6000602082019050919050565b6000602082019050919050565b600082825260208201905092915050565b600082825260208201905092915050565b600082825260208201905092915050565b600082825260208201905092915050565b600081905092915050565b600082825260208201905092915050565b6000613074826130ed565b915061307f836130ed565b925082821015613092576130916131ea565b5b828203905092915050565b60006130a8826130cd565b9050919050565b60006130ba826130cd565b9050919050565b60008115159050919050565b600073ffffffffffffffffffffffffffffffffffffffff82169050919050565b6000819050919050565b600061310282613109565b9050919050565b60006131148261311b565b9050919050565b6000613126826130cd565b9050919050565b82818337600083830152505050565b60005b8381101561315a57808201518184015260208101905061313f565b83811115613169576000848401525b50505050565b6000600282049050600182168061318757607f821691505b6020821081141561319b5761319a613219565b5b50919050565b60006131ac826130ed565b91507fffffffffffffffffffffffffffffffffffffffffffffffffffffffffffffffff8214156131df576131de6131ea565b5b600182019050919050565b7f4e487b7100000000000000000000000000000000000000000000000000000000600052601160045260246000fd5b7f4e487b7100000000000000000000000000000000000000000000000000000000600052602260045260246000fd5b7f4e487b7100000000000000000000000000000000000000000000000000000000600052604160045260246000fd5b6000601f19601f8301169050919050565b6132918161309d565b811461329c57600080fd5b50565b6132a8816130c1565b81146132b357600080fd5b50565b6132bf816130ed565b81146132ca57600080fd5b5056fea2646970667358221220deb5be9c8e81880868d7bd3c2efacc1d444fe00cb6870a1238f198935784ac0064736f6c63430008000033",
  "linkReferences": {},
  "deployedLinkReferences": {}
}