{
  "_format": "hh-sol-artifact-1",
  "contractName": "EscrowManager",
  "sourceName": "contracts/EscrowManager.sol",
  "abi": [
    {
      "inputs": [],
      "stateMutability": "nonpayable",
      "type": "constructor"
    },
    {
      "anonymous": false,
      "inputs": [
        {
          "indexed": false,
          "internalType": "uint256",
          "name": "escrowId",
          "type": "uint256"
        }
      ],
      "name": "DisputeResolved",
      "type": "event"
    },
    {
      "anonymous": false,
      "inputs": [
        {
          "indexed": false,
          "internalType": "uint256",
          "name": "escrowId",
          "type": "uint256"
        }
      ],
      "name": "EscrowCreated",
      "type": "event"
    },
    {
      "anonymous": false,
      "inputs": [
        {
          "indexed": false,
          "internalType": "address",
          "name": "client",
          "type": "address"
        },
        {
          "indexed": false,
          "internalType": "address",
          "name": "worker",
          "type": "address"
        },
        {
          "indexed": false,
          "internalType": "uint256",
          "name": "amount",
          "type": "uint256"
        },
        {
          "indexed": false,
          "internalType": "bool",
          "name": "isSettled",
          "type": "bool"
        },
        {
          "indexed": false,
          "internalType": "bool",
          "name": "isDisputed",
          "type": "bool"
        },
        {
          "indexed": false,
          "internalType": "string",
          "name": "agreement",
          "type": "string"
        },
        {
          "indexed": false,
          "internalType": "string",
          "name": "submission",
          "type": "string"
        },
        {
          "indexed": false,
          "internalType": "address[]",
          "name": "votesYes",
          "type": "address[]"
        },
        {
          "indexed": false,
          "internalType": "address[]",
          "name": "votesNo",
          "type": "address[]"
        }
      ],
      "name": "EscrowDetails",
      "type": "event"
    },
    {
      "anonymous": false,
      "inputs": [
        {
          "indexed": false,
          "internalType": "uint256",
          "name": "escrowId",
          "type": "uint256"
        }
      ],
      "name": "EscrowSettled",
      "type": "event"
    },
    {
      "anonymous": false,
      "inputs": [
        {
          "indexed": false,
          "internalType": "address",
          "name": "user",
          "type": "address"
        },
        {
          "indexed": false,
          "internalType": "uint256",
          "name": "userType",
          "type": "uint256"
        }
      ],
      "name": "UserRegistered",
      "type": "event"
    },
    {
      "anonymous": false,
      "inputs": [
        {
          "indexed": false,
          "internalType": "uint256",
          "name": "escrowId",
          "type": "uint256"
        }
      ],
      "name": "WorkApproved",
      "type": "event"
    },
    {
      "anonymous": false,
      "inputs": [
        {
          "indexed": false,
          "internalType": "uint256",
          "name": "escrowId",
          "type": "uint256"
        }
      ],
      "name": "WorkRejected",
      "type": "event"
    },
    {
      "anonymous": false,
      "inputs": [
        {
          "indexed": false,
          "internalType": "uint256",
          "name": "escrowId",
          "type": "uint256"
        }
      ],
      "name": "WorkSubmitted",
      "type": "event"
    },
    {
      "inputs": [
        {
          "internalType": "bool",
          "name": "_approval",
          "type": "bool"
        },
        {
          "internalType": "uint256",
          "name": "_escrowId",
          "type": "uint256"
        }
      ],
      "name": "approveWork",
      "outputs": [],
      "stateMutability": "nonpayable",
      "type": "function"
    },
    {
      "inputs": [
        {
          "internalType": "address",
          "name": "_worker",
          "type": "address"
        },
        {
          "internalType": "uint256",
          "name": "_amount",
          "type": "uint256"
        },
        {
          "internalType": "string",
          "name": "_agreement",
          "type": "string"
        }
      ],
      "name": "createEscrow",
      "outputs": [],
      "stateMutability": "payable",
      "type": "function"
    },
    {
      "inputs": [
        {
          "internalType": "uint256",
          "name": "_escrowId",
          "type": "uint256"
        }
      ],
      "name": "disburseFunds",
      "outputs": [],
      "stateMutability": "payable",
      "type": "function"
    },
    {
      "inputs": [],
      "name": "escrowAdmin",
      "outputs": [
        {
          "internalType": "address",
          "name": "",
          "type": "address"
        }
      ],
      "stateMutability": "view",
      "type": "function"
    },
    {
      "inputs": [
        {
          "internalType": "uint256",
          "name": "",
          "type": "uint256"
        }
      ],
      "name": "escrowIds",
      "outputs": [
        {
          "internalType": "uint256",
          "name": "",
          "type": "uint256"
        }
      ],
      "stateMutability": "view",
      "type": "function"
    },
    {
      "inputs": [
        {
          "internalType": "uint256",
          "name": "",
          "type": "uint256"
        }
      ],
      "name": "escrows",
      "outputs": [
        {
          "internalType": "address payable",
          "name": "client",
          "type": "address"
        },
        {
          "internalType": "address payable",
          "name": "worker",
          "type": "address"
        },
        {
          "internalType": "uint256",
          "name": "amount",
          "type": "uint256"
        },
        {
          "internalType": "bool",
          "name": "isSettled",
          "type": "bool"
        },
        {
          "internalType": "bool",
          "name": "isDisputed",
          "type": "bool"
        },
        {
          "internalType": "string",
          "name": "agreement",
          "type": "string"
        },
        {
          "internalType": "string",
          "name": "submission",
          "type": "string"
        },
        {
          "components": [
            {
              "internalType": "address[]",
              "name": "yes",
              "type": "address[]"
            },
            {
              "internalType": "address[]",
              "name": "no",
              "type": "address[]"
            }
          ],
          "internalType": "struct EscrowManager.Votes",
          "name": "votes",
          "type": "tuple"
        }
      ],
      "stateMutability": "view",
      "type": "function"
    },
    {
      "inputs": [
        {
          "internalType": "uint256",
          "name": "_escrowId",
          "type": "uint256"
        }
      ],
      "name": "getEscrowDetails",
      "outputs": [],
      "stateMutability": "nonpayable",
      "type": "function"
    },
    {
      "inputs": [],
      "name": "getUserType",
      "outputs": [
        {
          "internalType": "uint256",
          "name": "",
          "type": "uint256"
        }
      ],
      "stateMutability": "view",
      "type": "function"
    },
    {
      "inputs": [
        {
          "internalType": "uint256",
          "name": "_userType",
          "type": "uint256"
        }
      ],
      "name": "registerUser",
      "outputs": [],
      "stateMutability": "nonpayable",
      "type": "function"
    },
    {
      "inputs": [
        {
          "internalType": "uint256",
          "name": "_escrowId",
          "type": "uint256"
        },
        {
          "internalType": "string",
          "name": "_submission",
          "type": "string"
        }
      ],
      "name": "submitWork",
      "outputs": [],
      "stateMutability": "nonpayable",
      "type": "function"
    },
    {
      "inputs": [
        {
          "internalType": "address",
          "name": "",
          "type": "address"
        }
      ],
      "name": "userType",
      "outputs": [
        {
          "internalType": "uint256",
          "name": "",
          "type": "uint256"
        }
      ],
      "stateMutability": "view",
      "type": "function"
    },
    {
      "inputs": [
        {
          "internalType": "uint256",
          "name": "_escrowId",
          "type": "uint256"
        },
        {
          "internalType": "bool",
          "name": "_validWork",
          "type": "bool"
        }
      ],
      "name": "voteForDispute",
      "outputs": [],
      "stateMutability": "nonpayable",
      "type": "function"
    },
    {
      "inputs": [
        {
          "internalType": "address",
          "name": "",
          "type": "address"
        }
      ],
      "name": "voters",
      "outputs": [
        {
          "internalType": "uint256",
          "name": "",
          "type": "uint256"
        }
      ],
      "stateMutability": "view",
      "type": "function"
    }
  ],
  "bytecode": "0x6080604052600160035534801561001557600080fd5b50336000806101000a81548173ffffffffffffffffffffffffffffffffffffffff021916908373ffffffffffffffffffffffffffffffffffffffff1602179055506001600560003373ffffffffffffffffffffffffffffffffffffffff1673ffffffffffffffffffffffffffffffffffffffff16815260200190815260200160002081905550612928806100aa6000396000f3fe6080604052600436106100c25760003560e01c8063b83458b01161007f578063cc212a4811610059578063cc212a4814610293578063da39fd88146102af578063da8accf9146102d8578063e334e8dd14610301576100c2565b8063b83458b014610204578063b996ec2a14610241578063ba92982f1461026a576100c2565b8063012f52ee146100c75780631bbfae0e1461010b5780634199007714610134578063786f12951461015f5780638761fb7c1461019c578063a3ec138d146101c7575b600080fd5b3480156100d357600080fd5b506100ee60048036038101906100e99190611d22565b61031d565b604051610102989796959493929190612330565b60405180910390f35b34801561011757600080fd5b50610132600480360381019061012d9190611d22565b6105f5565b005b34801561014057600080fd5b506101496107c9565b60405161015691906125ac565b60405180910390f35b34801561016b57600080fd5b5061018660048036038101906101819190611d22565b610810565b60405161019391906125ac565b60405180910390f35b3480156101a857600080fd5b506101b1610834565b6040516101be919061226c565b60405180910390f35b3480156101d357600080fd5b506101ee60048036038101906101e99190611c56565b610858565b6040516101fb91906125ac565b60405180910390f35b34801561021057600080fd5b5061022b60048036038101906102269190611c56565b610870565b60405161023891906125ac565b60405180910390f35b34801561024d57600080fd5b5061026860048036038101906102639190611d22565b610888565b005b34801561027657600080fd5b50610291600480360381019061028c9190611ce6565b610d08565b005b6102ad60048036038101906102a89190611d22565b610e48565b005b3480156102bb57600080fd5b506102d660048036038101906102d19190611d4b565b6110e6565b005b3480156102e457600080fd5b506102ff60048036038101906102fa9190611d87565b611472565b005b61031b60048036038101906103169190611c7f565b6115c4565b005b60016020528060005260406000206000915090508060000160009054906101000a900473ffffffffffffffffffffffffffffffffffffffff16908060010160009054906101000a900473ffffffffffffffffffffffffffffffffffffffff16908060020154908060030160009054906101000a900460ff16908060030160019054906101000a900460ff16908060040180546103b890612794565b80601f01602080910402602001604051908101604052809291908181526020018280546103e490612794565b80156104315780601f1061040657610100808354040283529160200191610431565b820191906000526020600020905b81548152906001019060200180831161041457829003601f168201915b50505050509080600501805461044690612794565b80601f016020809104026020016040519081016040528092919081815260200182805461047290612794565b80156104bf5780601f10610494576101008083540402835291602001916104bf565b820191906000526020600020905b8154815290600101906020018083116104a257829003601f168201915b505050505090806006016040518060400160405290816000820180548060200260200160405190810160405280929190818152602001828054801561055957602002820191906000526020600020905b8160009054906101000a900473ffffffffffffffffffffffffffffffffffffffff1673ffffffffffffffffffffffffffffffffffffffff168152602001906001019080831161050f575b50505050508152602001600182018054806020026020016040519081016040528092919081815260200182805480156105e757602002820191906000526020600020905b8160009054906101000a900473ffffffffffffffffffffffffffffffffffffffff1673ffffffffffffffffffffffffffffffffffffffff168152602001906001019080831161059d575b505050505081525050905088565b6000600560003373ffffffffffffffffffffffffffffffffffffffff1673ffffffffffffffffffffffffffffffffffffffff1681526020019081526020016000205414610677576040517f08c379a000000000000000000000000000000000000000000000000000000000815260040161066e906124cc565b60405180910390fd5b600060028214806106885750600482145b90506106c96040518060400160405280600b81526020017f5f75736572547970653a2000000000000000000000000000000000000000000081525083611921565b6107086040518060400160405280601381526020017f6f6e6c79436c69656e744f72566f7465723a2000000000000000000000000000815250826119bd565b80610748576040517f08c379a000000000000000000000000000000000000000000000000000000000815260040161073f9061258c565b60405180910390fd5b81600560003373ffffffffffffffffffffffffffffffffffffffff1673ffffffffffffffffffffffffffffffffffffffff168152602001908152602001600020819055507fe29d35093005f4d575e1003753426b57a7f64378ba73332eef9c6ccc2b8decd633836040516107bd9291906123c3565b60405180910390a15050565b6000600560003373ffffffffffffffffffffffffffffffffffffffff1673ffffffffffffffffffffffffffffffffffffffff16815260200190815260200160002054905090565b6004818154811061082057600080fd5b906000526020600020016000915090505481565b60008054906101000a900473ffffffffffffffffffffffffffffffffffffffff1681565b60026020528060005260406000206000915090505481565b60056020528060005260406000206000915090505481565b600073ffffffffffffffffffffffffffffffffffffffff166001600083815260200190815260200160002060000160009054906101000a900473ffffffffffffffffffffffffffffffffffffffff1673ffffffffffffffffffffffffffffffffffffffff16141561092e576040517f08c379a00000000000000000000000000000000000000000000000000000000081526004016109259061244c565b60405180910390fd5b600060016000838152602001908152602001600020604051806101000160405290816000820160009054906101000a900473ffffffffffffffffffffffffffffffffffffffff1673ffffffffffffffffffffffffffffffffffffffff1673ffffffffffffffffffffffffffffffffffffffff1681526020016001820160009054906101000a900473ffffffffffffffffffffffffffffffffffffffff1673ffffffffffffffffffffffffffffffffffffffff1673ffffffffffffffffffffffffffffffffffffffff168152602001600282015481526020016003820160009054906101000a900460ff161515151581526020016003820160019054906101000a900460ff16151515158152602001600482018054610a4b90612794565b80601f0160208091040260200160405190810160405280929190818152602001828054610a7790612794565b8015610ac45780601f10610a9957610100808354040283529160200191610ac4565b820191906000526020600020905b815481529060010190602001808311610aa757829003601f168201915b50505050508152602001600582018054610add90612794565b80601f0160208091040260200160405190810160405280929190818152602001828054610b0990612794565b8015610b565780601f10610b2b57610100808354040283529160200191610b56565b820191906000526020600020905b815481529060010190602001808311610b3957829003601f168201915b505050505081526020016006820160405180604001604052908160008201805480602002602001604051908101604052809291908181526020018280548015610bf457602002820191906000526020600020905b8160009054906101000a900473ffffffffffffffffffffffffffffffffffffffff1673ffffffffffffffffffffffffffffffffffffffff1681526020019060010190808311610baa575b5050505050815260200160018201805480602002602001604051908101604052809291908181526020018280548015610c8257602002820191906000526020600020905b8160009054906101000a900473ffffffffffffffffffffffffffffffffffffffff1673ffffffffffffffffffffffffffffffffffffffff1681526020019060010190808311610c38575b5050505050815250508152505090507f4b5619033431898bad50175b58bc1a723700cac8e21809b46982666f9bd9db4b816000015182602001518360400151846060015185608001518660a001518760c001518860e00151600001518960e0015160200151604051610cfc99989796959493929190612287565b60405180910390a15050565b6000600160008381526020019081526020016000206005018054610d2b90612794565b905011610d6d576040517f08c379a0000000000000000000000000000000000000000000000000000000008152600401610d649061246c565b60405180910390fd5b8115610dde5760006001600083815260200190815260200160002060030160016101000a81548160ff0219169083151502179055507fe021b70c90c04cb1a4fae9fbcf358044aab6b86f01086a2af93b8e5c33abc2b681604051610dd191906125ac565b60405180910390a1610e44565b600180600083815260200190815260200160002060030160016101000a81548160ff0219169083151502179055507f96d5412ab942f3049daf937b483dc1312af9b021b1b0a2ab2219a4e192484b2581604051610e3b91906125ac565b60405180910390a15b5050565b3360008054906101000a900473ffffffffffffffffffffffffffffffffffffffff1673ffffffffffffffffffffffffffffffffffffffff168173ffffffffffffffffffffffffffffffffffffffff1614610ed7576040517f08c379a0000000000000000000000000000000000000000000000000000000008152600401610ece906124ec565b60405180910390fd5b816001600082815260200190815260200160002060030160019054906101000a900460ff1615610f3c576040517f08c379a0000000000000000000000000000000000000000000000000000000008152600401610f339061252c565b60405180910390fd5b826001600082815260200190815260200160002060030160009054906101000a900460ff1615610fa1576040517f08c379a0000000000000000000000000000000000000000000000000000000008152600401610f989061254c565b60405180910390fd5b600060016000868152602001908152602001600020905060008160060160010180549050826006016000018054905010159050600081611005578260000160009054906101000a900473ffffffffffffffffffffffffffffffffffffffff1661102b565b8260010160009054906101000a900473ffffffffffffffffffffffffffffffffffffffff165b90508073ffffffffffffffffffffffffffffffffffffffff166108fc84600201549081150290604051600060405180830381858888f19350505050158015611077573d6000803e3d6000fd5b50600180600089815260200190815260200160002060030160006101000a81548160ff0219169083151502179055507f3fb211d55ece51bd2ce6d1abaf29866ac8b6effbbc771f0eab5e7a9912763e58876040516110d591906125ac565b60405180910390a150505050505050565b81600073ffffffffffffffffffffffffffffffffffffffff166001600083815260200190815260200160002060000160009054906101000a900473ffffffffffffffffffffffffffffffffffffffff1673ffffffffffffffffffffffffffffffffffffffff16141561118d576040517f08c379a00000000000000000000000000000000000000000000000000000000081526004016111849061244c565b60405180910390fd5b60006001600085815260200190815260200160002090508060030160019054906101000a900460ff166111f5576040517f08c379a00000000000000000000000000000000000000000000000000000000081526004016111ec906124ac565b60405180910390fd5b60008054906101000a900473ffffffffffffffffffffffffffffffffffffffff1673ffffffffffffffffffffffffffffffffffffffff163373ffffffffffffffffffffffffffffffffffffffff16141580156112a157508060000160009054906101000a900473ffffffffffffffffffffffffffffffffffffffff1673ffffffffffffffffffffffffffffffffffffffff163373ffffffffffffffffffffffffffffffffffffffff1614155b80156112fd57508060010160009054906101000a900473ffffffffffffffffffffffffffffffffffffffff1673ffffffffffffffffffffffffffffffffffffffff163373ffffffffffffffffffffffffffffffffffffffff1614155b61133c576040517f08c379a00000000000000000000000000000000000000000000000000000000081526004016113339061256c565b60405180910390fd5b82156113af5780600601600001339080600181540180825580915050600190039060005260206000200160009091909190916101000a81548173ffffffffffffffffffffffffffffffffffffffff021916908373ffffffffffffffffffffffffffffffffffffffff160217905550611418565b80600601600101339080600181540180825580915050600190039060005260206000200160009091909190916101000a81548173ffffffffffffffffffffffffffffffffffffffff021916908373ffffffffffffffffffffffffffffffffffffffff1602179055505b60008160030160016101000a81548160ff0219169083151502179055507f57cce005d496355471bb5269f1dea3d6c81b6ac14c1d74ba28aefb022357013b8460405161146491906125ac565b60405180910390a150505050565b81600073ffffffffffffffffffffffffffffffffffffffff166001600083815260200190815260200160002060000160009054906101000a900473ffffffffffffffffffffffffffffffffffffffff1673ffffffffffffffffffffffffffffffffffffffff161415611519576040517f08c379a00000000000000000000000000000000000000000000000000000000081526004016115109061244c565b60405180910390fd5b600082511161155d576040517f08c379a00000000000000000000000000000000000000000000000000000000081526004016115549061250c565b60405180910390fd5b81600160008581526020019081526020016000206005019080519060200190611587929190611a82565b507f37da35a9cc37616d182b3f359f2fff61f738f090deb49c6a76a9c84c2462ba0e836040516115b791906125ac565b60405180910390a1505050565b60008211611607576040517f08c379a00000000000000000000000000000000000000000000000000000000081526004016115fe9061248c565b60405180910390fd5b6060806040518061010001604052803373ffffffffffffffffffffffffffffffffffffffff1681526020018673ffffffffffffffffffffffffffffffffffffffff16815260200185815260200160001515815260200160001515815260200184815260200160405180602001604052806000815250815260200160405180604001604052808581526020018481525081525060016000600354815260200190815260200160002060008201518160000160006101000a81548173ffffffffffffffffffffffffffffffffffffffff021916908373ffffffffffffffffffffffffffffffffffffffff16021790555060208201518160010160006101000a81548173ffffffffffffffffffffffffffffffffffffffff021916908373ffffffffffffffffffffffffffffffffffffffff1602179055506040820151816002015560608201518160030160006101000a81548160ff02191690831515021790555060808201518160030160016101000a81548160ff02191690831515021790555060a08201518160040190805190602001906117a2929190611a82565b5060c08201518160050190805190602001906117bf929190611a82565b5060e08201518160060160008201518160000190805190602001906117e5929190611b08565b506020820151816001019080519060200190611802929190611b08565b5050509050506004600354908060018154018082558091505060019003906000526020600020016000909190919091505560036000815480929190611846906127c6565b91905055506002600560003373ffffffffffffffffffffffffffffffffffffffff1673ffffffffffffffffffffffffffffffffffffffff168152602001908152602001600020819055506003600560008773ffffffffffffffffffffffffffffffffffffffff1673ffffffffffffffffffffffffffffffffffffffff168152602001908152602001600020819055507fca802b28938736a358ed2e446f2c9707d29773a4c3bcc5d12dc8b949569f96f46001600354611905919061268e565b60405161191291906125ac565b60405180910390a15050505050565b6119b9828260405160240161193792919061241c565b6040516020818303038152906040527f9710a9d0000000000000000000000000000000000000000000000000000000007bffffffffffffffffffffffffffffffffffffffffffffffffffffffff19166020820180517bffffffffffffffffffffffffffffffffffffffffffffffffffffffff8381831617835250505050611a59565b5050565b611a5582826040516024016119d39291906123ec565b6040516020818303038152906040527fc3b55635000000000000000000000000000000000000000000000000000000007bffffffffffffffffffffffffffffffffffffffffffffffffffffffff19166020820180517bffffffffffffffffffffffffffffffffffffffffffffffffffffffff8381831617835250505050611a59565b5050565b60008151905060006a636f6e736f6c652e6c6f679050602083016000808483855afa5050505050565b828054611a8e90612794565b90600052602060002090601f016020900481019282611ab05760008555611af7565b82601f10611ac957805160ff1916838001178555611af7565b82800160010185558215611af7579182015b82811115611af6578251825591602001919060010190611adb565b5b509050611b049190611b92565b5090565b828054828255906000526020600020908101928215611b81579160200282015b82811115611b805782518260006101000a81548173ffffffffffffffffffffffffffffffffffffffff021916908373ffffffffffffffffffffffffffffffffffffffff16021790555091602001919060010190611b28565b5b509050611b8e9190611b92565b5090565b5b80821115611bab576000816000905550600101611b93565b5090565b6000611bc2611bbd846125f8565b6125c7565b905082815260208101848484011115611bda57600080fd5b611be5848285612752565b509392505050565b600081359050611bfc816128ad565b92915050565b600081359050611c11816128c4565b92915050565b600082601f830112611c2857600080fd5b8135611c38848260208601611baf565b91505092915050565b600081359050611c50816128db565b92915050565b600060208284031215611c6857600080fd5b6000611c7684828501611bed565b91505092915050565b600080600060608486031215611c9457600080fd5b6000611ca286828701611bed565b9350506020611cb386828701611c41565b925050604084013567ffffffffffffffff811115611cd057600080fd5b611cdc86828701611c17565b9150509250925092565b60008060408385031215611cf957600080fd5b6000611d0785828601611c02565b9250506020611d1885828601611c41565b9150509250929050565b600060208284031215611d3457600080fd5b6000611d4284828501611c41565b91505092915050565b60008060408385031215611d5e57600080fd5b6000611d6c85828601611c41565b9250506020611d7d85828601611c02565b9150509250929050565b60008060408385031215611d9a57600080fd5b6000611da885828601611c41565b925050602083013567ffffffffffffffff811115611dc557600080fd5b611dd185828601611c17565b9150509250929050565b6000611de78383611e11565b60208301905092915050565b611dfc8161271c565b82525050565b611e0b816126d4565b82525050565b611e1a816126c2565b82525050565b611e29816126c2565b82525050565b6000611e3a82612638565b611e44818561265b565b9350611e4f83612628565b8060005b83811015611e80578151611e678882611ddb565b9750611e728361264e565b925050600181019050611e53565b5085935050505092915050565b6000611e9882612638565b611ea2818561266c565b9350611ead83612628565b8060005b83811015611ede578151611ec58882611ddb565b9750611ed08361264e565b925050600181019050611eb1565b5085935050505092915050565b611ef4816126e6565b82525050565b6000611f0582612643565b611f0f818561267d565b9350611f1f818560208601612761565b611f288161289c565b840191505092915050565b6000611f4060168361267d565b91507f457363726f7720646f6573206e6f7420657869737421000000000000000000006000830152602082019050919050565b6000611f80601d8361267d565b91507f43616e6e6f74206a7564676520756e7375626d697474656420776f726b0000006000830152602082019050919050565b6000611fc0601d8361267d565b91507f457363726f7720616d6f756e742073686f756c64206e6f7420626520300000006000830152602082019050919050565b600061200060188361267d565b91507f4469737075746520616c7265616479207265736f6c76656400000000000000006000830152602082019050919050565b600061204060148361267d565b91507f5573657220616c726561647920657869737473210000000000000000000000006000830152602082019050919050565b600061208060098361267d565b91507f4e6f742041646d696e00000000000000000000000000000000000000000000006000830152602082019050919050565b60006120c060108361267d565b91507f456d707479207375626d697373696f6e000000000000000000000000000000006000830152602082019050919050565b6000612100601c8361267d565b91507f457363726f772064697370757465206e6f74207265736f6c76656421000000006000830152602082019050919050565b600061214060168361267d565b91507f457363726f7720616c726561647920736574746c6564000000000000000000006000830152602082019050919050565b600061218060138361267d565b91507f4f6e6c79206e65757472616c20766f74657221000000000000000000000000006000830152602082019050919050565b60006121c060218361267d565b91507f4f6e6c7920436c69656e74206f7220566f7465722063616e207265676973746560008301527f72000000000000000000000000000000000000000000000000000000000000006020830152604082019050919050565b600060408301600083015184820360008601526122368282611e2f565b915050602083015184820360208601526122508282611e2f565b9150508091505092915050565b61226681612712565b82525050565b60006020820190506122816000830184611e20565b92915050565b60006101208201905061229d600083018c611df3565b6122aa602083018b611df3565b6122b7604083018a61225d565b6122c46060830189611eeb565b6122d16080830188611eeb565b81810360a08301526122e38187611efa565b905081810360c08301526122f78186611efa565b905081810360e083015261230b8185611e8d565b90508181036101008301526123208184611e8d565b90509a9950505050505050505050565b600061010082019050612346600083018b611e02565b612353602083018a611e02565b612360604083018961225d565b61236d6060830188611eeb565b61237a6080830187611eeb565b81810360a083015261238c8186611efa565b905081810360c08301526123a08185611efa565b905081810360e08301526123b48184612219565b90509998505050505050505050565b60006040820190506123d86000830185611e20565b6123e5602083018461225d565b9392505050565b600060408201905081810360008301526124068185611efa565b90506124156020830184611eeb565b9392505050565b600060408201905081810360008301526124368185611efa565b9050612445602083018461225d565b9392505050565b6000602082019050818103600083015261246581611f33565b9050919050565b6000602082019050818103600083015261248581611f73565b9050919050565b600060208201905081810360008301526124a581611fb3565b9050919050565b600060208201905081810360008301526124c581611ff3565b9050919050565b600060208201905081810360008301526124e581612033565b9050919050565b6000602082019050818103600083015261250581612073565b9050919050565b60006020820190508181036000830152612525816120b3565b9050919050565b60006020820190508181036000830152612545816120f3565b9050919050565b6000602082019050818103600083015261256581612133565b9050919050565b6000602082019050818103600083015261258581612173565b9050919050565b600060208201905081810360008301526125a5816121b3565b9050919050565b60006020820190506125c1600083018461225d565b92915050565b6000604051905081810181811067ffffffffffffffff821117156125ee576125ed61286d565b5b8060405250919050565b600067ffffffffffffffff8211156126135761261261286d565b5b601f19601f8301169050602081019050919050565b6000819050602082019050919050565b600081519050919050565b600081519050919050565b6000602082019050919050565b600082825260208201905092915050565b600082825260208201905092915050565b600082825260208201905092915050565b600061269982612712565b91506126a483612712565b9250828210156126b7576126b661280f565b5b828203905092915050565b60006126cd826126f2565b9050919050565b60006126df826126f2565b9050919050565b60008115159050919050565b600073ffffffffffffffffffffffffffffffffffffffff82169050919050565b6000819050919050565b60006127278261272e565b9050919050565b600061273982612740565b9050919050565b600061274b826126f2565b9050919050565b82818337600083830152505050565b60005b8381101561277f578082015181840152602081019050612764565b8381111561278e576000848401525b50505050565b600060028204905060018216806127ac57607f821691505b602082108114156127c0576127bf61283e565b5b50919050565b60006127d182612712565b91507fffffffffffffffffffffffffffffffffffffffffffffffffffffffffffffffff8214156128045761280361280f565b5b600182019050919050565b7f4e487b7100000000000000000000000000000000000000000000000000000000600052601160045260246000fd5b7f4e487b7100000000000000000000000000000000000000000000000000000000600052602260045260246000fd5b7f4e487b7100000000000000000000000000000000000000000000000000000000600052604160045260246000fd5b6000601f19601f8301169050919050565b6128b6816126c2565b81146128c157600080fd5b50565b6128cd816126e6565b81146128d857600080fd5b50565b6128e481612712565b81146128ef57600080fd5b5056fea26469706673582212206ebde3f63e3a6181df4b84cb45397e57581fa1839608319c183df3017a6c5e5a64736f6c63430008000033",
  "linkReferences": {},
  "deployedLinkReferences": {}
}